:4000000000800020110000002D0500002D05000008B5044B1A6803F53F5302331A6000F08DFA00BFFA46004010B5054C237833B9044B13B10448AFF300800123237010BD8C
:400040004881FF1F0000000000090000084B10B51BB108490848AFF300800848036803B910BD074B002BFBD0BDE81040184700BF000000004C81FF1F00090000C880FF1FF0
:400080000000000070B504460D46164630E0A34202DA01331D4A13601C4B1B689C4202DA013B1A4A1360194B5B68AB4202DA0133164A5360154B5B689D4202DA013B134ADE
:4000C0005360124B9B68B34202DA01330F4A93600E4B9B689E4202DA013B0C4A93600B4B1A7A1979187800F08FF80A2000F098FB064B1B68A342CAD1044A52689542C6D105
:40010000024A92689642C2D170BD00BF6481FF1F10B562B6144A154B1A60154A136843F00203136000F056F8002405E0002211462046FFF7A7FF0134FF2CF7DD002405E086
:40014000002221461046FFF79DFF0134FF2CF7DD002405E0224600210846FFF793FF0134FF2CF7DDE0E700BF3F19010014E000E010E000E038B504460D46032824D8DFE843
:4001800000F00209101E084600F034FA104B1D55002038BD084600F039FA0D4B1D55002038BD084600F03EFA094B1D55002038BD29462046FFF7DEFF0134E4B200E00024B0
:4001C000022CF5D9002038BD6FF0130038BD00BF7481FF1F38B50024254609E00021094B19552046FFF7C6FF00B105460134E4B2022CF3D900F0ECFA00F0A2FA00F058FAE7
:40020000284638BD7481FF1F70B50E461546074C34F8100000F026FA34F8160000F06AFA34F8150000F0AEFA002070BD04090000FEE700BFF0B40022174611E050F8276085
:40024000F3B226F0FF0608E001EB420511F812406D78A5550132013BDBB2002BF4D101372B2FEBD9F0BC704738B500242E4B1C80582202331A70082202331A8018232B4ABC
:4002800013702C2102321180023213704D21023211800232137043F63F0102321180023213700622224B1A705222A3F580731A70204B1B78DBB2204A13704FF4E3621F4B01
:4002C0001A8042F25122023B1A8019250CE01C4B1B7803F0010343EA440404F003044FF4F07000F0BDFA013D0DB1032CEFD115B90320FFF79DFF134A4FF480731380072353
:400300001370002310490B7048200231087013700532137002220D4B1A700D4A137843F01F03137038BD00BF8040004086400040004300400F010049A146004022420040D2
:4003400025420040044000400640004001400040A243004008B50A46002100F0C8FA08BDF8B5164B1B78DBB2154E3478E4B2154F3D78EDB203F00701134A11701B090132C6
:40038000137044F00303337045F003033B7003220E4B1A7040230E4A13700232137030220C4B1A70202203331A700A2000F04EFA3D7034704422084B1A70F8BDCF01004901
:4003C000F8460040F94600406E5800400D51004001590040205B00407658004008B500F07BFA08BD38B572B661223A4B1A70FFF73BFF00240CE0384D630019194A00114670
:400400002A44084691882858FFF7A4FF0134E4B2072CF0D900240BE02F49A3001819420088188022416B006BFFF7D8FF0134E4B2002CF1D029494FF09040FFF7FBFE0421F7
:400440002748FFF787FF042226492748FFF7C6FF264A137843F0020313701032137843F002031370224C237843F040032370A2F58632513A137843F01003137008221D49C4
:400480001D48FFF7ABFF0A221C491D48FFF7A6FF0A221C491C48FFF7A1FF08221B491C48FFF79CFF08221B491B48FFF797FF08221A491B48FFF792FF1A4A137843F0080377
:4004C0001370FFF74DFF0E2221461748FFF786FF38BD00BF00480040040B0000B000004800760040680D00480876004003500140A0430040300D004802510040380D0048F6
:40050000C0510040440D0048F0510040500D004812510040580D004822510040600D00483251004022430040B043004008B500F0A7F903680C2B00D1FEE7FEE708B5104EB3
:40054000104D16E029686B68AC68002204E051F8040B43F8040B0432A242F8D1E868002203E0002143F8041B04328242F9D11035013E002EE6D100F089F9FFF7C9FDFEE715
:4005800001000000640B000008B5114A114B1A60114A136843F40073136000230AE0032B03D80E4A52F8231000E00D490D4A42F8231001332F2BF2D90B4B1A780B4B1A70E4
:4005C000084A0B4B1A60FFF70DFF00F00FF908BD0004FA050CED00E014ED00E0000000002D0500000080FF1FBC760040C080FF1F08ED00E0044A137803F0BF03800100F0E9
:40060000400018431070704700510040044A137803F0FE0300F0010018431070704700BF20510040044A137803F07F03C001C0B218431070704700BF00510040024A13785D
:4006400043F08003137070477D640040014B1880704700BF12680040014B1880704700BF92680040014B1880704700BF5268004008B50E4A137803F0C00343F00903137055
:400680001C32137843F0010313700132137843F0010313704FF6FF70FFF7D8FF4FF6FF70FFF7DAFF0020FFF7DDFF08BD7D64004008B5054B1B7823B9FFF7DAFF0122024B98
:4006C0001A70FFF7BBFF08BD7781FF1F024A137843F08003137070477C640040014B1880704700BF1C680040014B1880704700BF9C680040014B1880704700BF5C680040E4
:4007000008B50E4A137803F0C00343F0090313702232137843F0010313700132137843F0010313704FF6FF70FFF7D8FF4FF6FF70FFF7DAFF0020FFF7DDFF08BD7C640040B5
:4007400008B5054B1B7823B9FFF7DAFF0122024B1A70FFF7BBFF08BD7881FF1F024A137843F08003137070477F640040014B1880704700BF18680040014B1880704700BF4A
:4007800098680040014B1880704700BF5868004008B50E4A137803F0C00343F0090313701D32137843F0010313700132137843F0010313704FF6FF70FFF7D8FF4FF6FF7046
:4007C000FFF7DAFF0020FFF7DDFF08BD7F64004008B5054B1B7823B9FFF7DAFF0122024B1A70FFF7BBFF08BD7981FF1F0B4A7F2313708021517007E0DA0002F1804202F535
:40080000F042013BDBB21370002BF5D1DB0003F1804303F5F04300221A707047CC80FF1F10B5044605E0084B186800F019F8A4F50044B4F5004FF6D8034B586800FB04F057
:4008400000F00EF810BD00BFD480FF1F08B5034B1B7A00FB03F000F003F808BDD480FF1F0230800803D000BF01380046FCD17047EFF3108072B6704780F31088704700BFB3
:40088000014B1868704700BF4481FF1F0E4B70B51E460E4C0025E41AA410A54204D056F8253098470135F8E700F04AF9084B094C1E46E41AA4100025A54204D056F825303A
:4008C00098470135F8E770BD4C0B00004C0B00004C0B0000540B000010B5431E0A44914204D011F8014B03F8014FF8E710BD03460244934202D003F8011BFAE77047000027
:40090000000000000000010001000100010001000100010001000200020002000200020002000200020002000200020002000300030003000300030003000300040004007A
:400940000400040004000400050005000500050005000600060006000600070007000700080008000800090009000A000A000A000B000B000C000C000D000D000E000F0074
:400980000F00100011001100120013001400150016001700180019001A001B001C001D001F0020002100230024002600280029002B002D002F0031003400360038003B0029
:4009C0003D0040004300460049004C004F00530057005B005F00630067006C00700075007B00800086008C00920098009F00A600AD00B500BD00C500CE00D700E100EB00BD
:400A0000F50000010B011701240130013E014C015B016A017A018B019C01AF01C201D601EA01000217022E02470261027C029802B502D402F402160339035D038303AB039F
:400A4000D50300042D045D048E04C204F80430056B05A805E8052B067106BA0606075607A90700085B08B9081C098309EF09600AD50A500BD10B560CE20C740D0D0EAC0EF8
:400A8000520F0010B510731138120713DF13C014AB15A116A117AD18C419E91A1A1C581DA51E00206B21E52271240E26BD278029562B412D422F5A318933D1353338B03A05
:400AC000493D0040D542CB45E2481C4C7A4FFF52AC56825A845EB3621267A26B66706075927A0080AA85958BC3913798F59EFEA558AD04B508BD66C524CE44D7CCE0C0EA12
:400B000025F5FFFF004F00400C00405100403000000001400010001401408006001B0140000100400140000A004C01400002005001402000801A0140B00C0048800043000B
:400B4000F8B500BFF8BC08BC9E4670474D00000089050000F8B500BFF8BC08BC9E46704729000000780B0000C880FF1F800000003800000000000000000000007F800000D3
:400B8000030000000000A08C401901004800000000A24A0400000000000000000000000000000000000000000000000000000000000000003E0B000000000000000000002B
:400BC00000000000000000000000000000000000000000000000000000000000000000000000000000000000000000000000000000000000E480FF1F000000000000000073
:400C000000000000000000000000000000000000000000000000000000000000000000000000000000000000000000000000000000000000000000000000000000000000B4
:400C40000000000000000000000000000000000000000000000000000000000000000000000000000000000000000000000000000000000000000000000000000000000074
:400C80000000000000000000000000000000000000000000000000000000000000000000000000000000000000000000000000000000000000000000000000000000000034
:400CC00000000000000000000000000000000000000000000000000000000000000000000000000000000000000000000000000000000000000000000000000000000000F4
:020000040003F7
:0200000480007A
:4000000001450040024F004008520040015B00400264004003650040100001402B010140390201403C0301401004014042050140180601403B07014053080140490901407D
:40004000410A0140480B0140480C0140310D01403B0E0140270F01404F14014054150140381601403B170140351801403A190140121A0140531B0140114001401341014076
:400080001442014009430140054401400E4501400B460140174701400448014004490140164C01400C4D01400D500140035101407E0201400A4B000208C90993101011305C
:4000C000608061A47C4027848401880F850F87388872060412021F012A013002310132043401580459045C225F01D804D904DC22DF010048030804400506080109100A20F7
:400100000B020C080E040F101010120213201408178019061A041B082202238028102B082F083048321234083502378038403B023C403D203E043F10C0B7C26FC4C7CA2662
:40014000CCDFCE79E20CE6020001040105010B010C010D011101150116012101240129012A012C0134013701580459045C225F018102820484208610870188108A208D01DD
:400180008E01908092409304944096809A089C049F02A002A104A401A508A808AB08AE02AF10B31FB6FFB908BE40BF04D401D804D904DB0CDC20DD20DF0100C8010202805B
:4001C00003080440050608180A660B080F101044120313261418160119401F20202023102402281429422D022F083041310432113408360238403A013B143C803E043F1014
:400200005A80794080018240920494409620971099069C599F20A202A308A404B502B701C0BFC22FC4EFCAAFCCCFCE7FD608DE08E6800701120131013201560257365804F9
:4002400059045B0C5C225D205F01D804D904DC22DF010080010A0420050E06040A600D020F0810101206141016011A201B0C20C02102281029022D022F083104321234100F
:400280003504360238603B043CA05B04600468046A426B20730679408208854088408E108F809308954096E29704981099069A019F22A010A282A302A444AB20AE02AF020B
:4002C000B010C07DC25CC4A7CAA3CCE7CE3ED602D804DE08E8020D01150125012D01330139083F04580459045C225F018901A101B501B920BF10D203D302D804D904DB0435
:40030000DC22DD20DF0101800280032004200524064207800A240D020F041202138414402004260829852B302C202E022F863040310232903528368239203A403B0C3D8074
:400340003E043F2069606B04814085028604882092209308942495409680988099059F04A142A282A382A608A880B505C0FDC256C415CAFBCCFDCE7EE424EE040184058495
:40038000090A0B100D070F381160150419011D561F09218429802B042D042F803108337F3502378039083F5140234101424045BE46FC470D481F49FF4AFF4BFF4C224EF0C0
:4003C0004F08500456025724580459045A045B045C025F0162C0644065016610671168C069016B116C406D016E406F018601A601B001C060C103C9FFCAFFCBFFCDA0CF048D
:40040000D018D409D804DA04DB04DC01DD01DF01E040E2C0E440E540E6C0E8C0EAC0ECC0EEC0000804400CC00D110F04102014A11B012420252027522F8A35423604371069
:400440003DA03E0641044558470248044D0A558056A8581059085B42624066106D086E066F8F760282C0852086408C10912B9240940A9604980199459A109C209EAA9F0505
:40048000A024A108A480A550A601A701A812AB10AF01B040B520B640C084C2D0C4B4CAB0CCF0CEF0D0F2D204D60FD828E004E814EC08EE444060410345014702481149FFAE
:4004C0004AFF4BFF4DAF4E0F4F045018580459045A045B045C225D015F01604062C06440654066C068C06AC06CC06EC0801182228462861489058A808B0A8C0D8D038E80AD
:400500008F0C9002920D944295029608970D988D9C8D9D099F06A040A48DAC8DB00FB270B480B50FB670BA8ABB20BE10D440D804D904DB04DF0100040121041A060807018B
:4005400008290D080E86108012501308168217041D481E801F10270828202902300132403540370839233A403B403DA0400441144824510464026620672068406A606B10CE
:4005800070107105720180108210860188018B048C088D029121940A968097449C089D22A004A480A508AD10AF01B101B310C0FEC2FEC4B8CA03CC59CE3DD002D204D8700C
:4005C000E04CE424EC80000D02100414062B141016271A021C383403363C388039203F104020410649FF4AFF4BFF4DA04F0450185280580459045A045B045C205D115F015D
:40060000604062C06440654066C068C06AC06CC06EC08B0193029B01B101B502C020C106C610C702C818C9FFCAFFCBFFCDAFCE0FCF04D018D280D804D904DA04DB04DC126C
:40064000DD11DF01E040E2C0E440E540E6C0E8C0EAC0ECC0EEC001090301040A08080A800D080E0A108013041E0A208827082D2A30023120370138203F54412045204A08B1
:400680004E08501052087002774088408B08971499089D229F41A120A480A604AA04B010B508C03DC2ECC40CCAE0CC85CE74D024D224E680E840EC044050410349FF4AFF7C
:4006C0004BFF4DA04F045018580459045A045C225D015F01604062C06440654066C068C06AC06CC06EC082019A029E02AE04B202B404B601C010C103C501C620C809C9FF6B
:40070000CAFFCBFFCDAFCE0FCF04D018D280D804D904DA04DB04DC21DD11DF01E040E2C0E440E540E6C0E8C0EAC0ECC0EEC0010A07400B100D800F081084120213041780BB
:400740001C221DA02884292A2C802D28308033013480360237013B143F1442204580462048014F0856207780C01CC2C4C48FCAE7CC99CE66D052D208E20CE6020306050655
:40078000060407010A010B030C040F05120218041B011D08260428012E042F0232033507360437083B203E403F405608580459045B045C395D905F018110851C86058702E3
:4007C00089148C038D108E0C8F0C90039204990C9B119F03A109A208A310A40AA604A803A920AA04B00FB11FB520BA02BF10C043C102C6B0C7CEC838C9FFCAFFCBFFCEF085
:40080000CF44D00CD401D804D904DA04DB04DC33DD33DF01E6C0EA40EB020050010804400508080209200C021006110412201526183019801C401D0221302302240427C05E
:400840002B012E022F083010334037A0384039263A023C403D043F224410452247205403571858805C245D805E0260027D017E40801083028421880489038D018E018F0889
:400880009102944095209680989099089D03A220A301A811A984AA10AC08AD04AE80AF04B040B101B480B504C0A7C21AC477CAA8CC3CCEFFD0E0D6F8D808E004E401EA0EDE
:4008C000EC2C0C031A0124022803360338803E404001454049FF4A074BFF4C404D204EF04F055008580459045A045C225D035F01604061A862406320820183608701890AC6
:400900008B708D0A8F3099609B1AA201A301A904AB18AF40B106B301B401B578B902BB20BE10BF04D418D804D904DB04DC32DD30DF01014103200462050408400A200B08C6
:400940000C500D020E500F081088110815201680170819101D8021012228230829012B052D402E502FA4322034403840392A3D083E8045804D084F0A590261106240864834
:40098000922093089420968098C099049D80A102A3A0B508C0FDC2F7C47ECAFDCC14CE5FD010D601D80CE8400026019A0209042F05980702081009210BD80D02111312010C
:4009C00013641410153817C018291A061C271DFC1E081F032004219A2402280629022B982C102D982F023010322033E03407350F3608371338803B283E04560257115804BB
:400A000059045B045C035D305F01D804D904DC22DF010040010A0420050508810D020E16108011011304154017261C101D221E01240A255026042701288129082F8A304015
:400A4000354036043701384039213D283E825C106C106D546E107611772691219304944A980199409A829CE0A104A280A38AA550A604B010B180B505C07DC2F9C4FCCABBA1
:400A8000CCD8CEFDD62004010503090319011B0222032D022F013402350336015608580F59045B045C325D905F0100040410050106110C010D080E040F0210801560164027
:400AC000170418041A011D2D1E061F022110222024102540261027402B012D102E042F02322034413504362139143DC43F024440452A464047404F10540256205880630252
:400B00007A80808088808A118E209114931096049A119B049D05A102A280A402A601A8C0AC40AD22AF14B020B108B201B482C0F4C2F0C4F8CA78CCF4CED6D0F0D220D608DA
:400B4000D808DE01E280E401E6C0E890EC20EEC012201620300233403640370838203B023E20800286408708C430CCF0CE70E230E640012005100B800C08324052805780F5
:400B8000828083408A01942097029F40A220C0C0C230CC10D460E6A053085A01801084089201942097029910A008A220A920AA40AB80AF40D420D640E040E220E810EE202B
:400BC0001B0888409910A708AA20AB01C610EC80EE207940824085208740DC015210602064048A10964097409804A520A940B004D404D803E404EC011B04271081018301B5
:400C00008710964097409C20A520C608C80109200B400E40440181808F02902093129640974099019A10A520A810AB04AC20B210B710C20ED004E402EC04EE022502A44083
:400C4000B510C8800080A440B102C04050105301561059015D805F02631066019020931299819A119B029C01A302B601B702D407D607D803E808EC0210107B027C80808051
:400C80008810A302B001C408DC01DE04E204EC040007021408040A040C070E07100D110112141A0C1B011C0D1D0100AB010F100A4F8490290C0700000000400008C1001615
:400CC0004C00A3C0FFC00000F3420C21420000C00000B30004C0000001070000030000C08C3000080FC07C070000AA0000000001240306000100C0E028FFFFFF62A0F041F9
:400D00000C00000000000000040404003303000100000000000040020010301000101012000000000000000000000000000000003CC0C00000030300800040BCBC00B400F2
:400D4000000000004000000000000000C000000000FFFF00FF000000003939003800000004383800080000000001000000000000000000000000000000000000000000004F
:400D80000000000000000000000000000000000000000000000000000000000000000000000000000000000000000000000000000000000000000000000000000000000033
:400DC00000000000000000000000000000000000000000000000000000000000000000000000000000000000000000000000000000000000000000000000000000000000F3
:400E000000000000000000000000000000000000000000000000000000000000000000000000000000000000000000000000000000000000000000000000000000000000B2
:400E40000000000000000000000000000000000000000000000000000000000000000000000000000000000000000000000000000000000000000000000000000000000072
:0200000490006A
:0400000000004007B5
:0200000490105A
:04000000BC90ACAF55
:0200000490303A
:02000000C555E4
:0200000490402A
:4000000000000000000000000000000000000000000000000000000000000000000000000000000000000000000000000000000000000000000000000000000000000000C0
:400040000000000000000000000000000000000000000000000000000000000000000000000000000000000000000000000000000000000000000000000000000000000080
:400080000000000000000000000000000000000000000000000000000000000000000000000000000000000000000000000000000000000000000000000000000000000040
:4000C0000000000000000000000000000000000000000000000000000000000000000000000000000000000000000000000000000000000000000000000000000000000000
:0200000490501A
:0C00000000012E16106900012E1DD5BE57
:00000001FF